:100000000C945C000C947B000C947B000C947B00A3
:100010000C947B000C947B000C947B000C947B0074
:100020000C947B000C947B000C947B000C947B0064
:100030000C947B000C945A010C947B000C947B0074
:100040000C947B000C947B000C947B000C947B0044
:100050000C947B000C947B000C947B000C947B0034
:100060000C947B000C947B000C947B000C947B0024
:100070000C947B000C947B000C947B000C947B0014
:100080000C947B000C947B000C947B0007052305EB
:100090006C058A05A805C605E4051D0624062B0681
:1000A0003206390640064706590670069006B00625
:1000B000D006F0061007300711241FBECFEFD0E4A2
:1000C000DEBFCDBF11E0A0E0B1E0E8EEF2E100E07C
:1000D0000BBF02C007900D92AC3EB107D9F711E0FB
:1000E000ACEEB1E001C01D92AF3FB107E1F70E9455
:1000F000D6080C9472090C94000040E050E00CC04B
:1001000000002F5F3F4F02C020E030E0273063E067
:100110003607B4F34F5F5F4F48175907ACF30895A4
:100120005E9888B95F9A00005F9882E090E00E9434
:100130007D00089581E00E9490000895853120F4AB
:1001400081580E94900017C09BEE980F943120F4C4
:1001500085550E9490000FC097ED980F943120F4C0
:1001600085590E94900007C093EC980F943118F4C1
:1001700089560E9490008CE00E949000089584E6C9
:1001800090E00E947D0088E30E94900086E00E943B
:1001900090008FE00E94900081E00E9490008AE031
:1001A00090E00E947D0008955E9A88B95F9A0000F1
:1001B0005F9882E090E00E947D000895EF92FF92A8
:1001C0000F931F93CF93DF93182FEB010E949A0098
:1001D0000EC001E0010F812F0E949E007E018FEF73
:1001E000E81AF80A88810E94D400102FE70188815C
:1001F0008111EFCFDF91CF911F910F91FF90EF9081
:100200000895FF920F931F93CF93DF93EB010DC0DF
:10021000FF24F394F80E0E949E008E010F5F1F4F83
:1002200088810E94D4008F2DE80198819111F0CF30
:10023000DF91CF911F910F91FF900895CF93C82F19
:100240008A3019F48DE00E941E019091C00095FF44
:10025000FCCFC093C60080E090E0CF9108958BE082
:10026000809381008DE790E09093890080938800CF
:1002700082E080936F00109285001092840080913C
:100280000D0190910E01A0910F01B091100180938A
:10029000F0019093F101A093F201B093F3018FB7B5
:1002A00080688FBF089510928100089581E0809347
:1002B000F40108951F920F920FB60F9211240BB6FE
:1002C0000F922F933F934F935F936F937F938F93EF
:1002D0009F93AF93BF93EF93FF938091F001909121
:1002E000F101A091F201B091F3010197A109B109C7
:1002F0008093F0019093F101A093F201B093F30188
:10030000892B8A2B8B2B91F40E94560180910D0131
:1003100090910E01A0910F01B09110018093F00116
:100320009093F101A093F201B093F301FF91EF914B
:10033000BF91AF919F918F917F916F915F914F91FD
:100340003F912F910F900BBE0F900FBE0F901F90FB
:10035000189560930D0170930E0180930F01909397
:1003600010016093F0017093F1018093F20190937A
:10037000F30108958091F7019091F8018230910581
:1003800009F462C028F4009769F0019791F033C333
:100390008430910509F4C4C108F40CC1059709F42F
:1003A00075C229C381E090E09093F8018093F70132
:1003B00022C3029940C080910901813089F482E012
:1003C00090E09093F8018093F7018091F50190916E
:1003D000F601019709F00FC381E08093EE010BC392
:1003E000853151F483E090E09093F8018093F70118
:1003F00081E08093EE01FFC2893251F484E090E005
:100400009093F8018093F70181E08093EE01F3C2AD
:100410008D3309F0F0C28091F5019091F6010497B7
:1004200019F481E08093EE0185E090E09093F8016B
:100430008093F701E0C2029BDEC281E090E09093DE
:10044000F8018093F701D7C280910C01833120F429
:100450008F5F80930C01CFC2833108F4CCC28091AE
:10046000EE01813039F41092EE018091EF018F5F3F
:100470008093EF018091EF01863099F4909105010E
:1004800080910401892B90910301892B90910201A5
:10049000892B90910101892B90910001892B8095E6
:1004A00085B98091EF01853081F4909105018091AB
:1004B0000401892B90910301892B90910201892BD2
:1004C00090910101892B809585B98091EF0184304D
:1004D00069F49091060180910401892B90910301A8
:1004E000892B90910201892B809585B98091EF012C
:1004F000833081F49091060180910501892B9091C0
:100500000301892B90910201892B90910101892B84
:10051000809585B98091EF01823081F49091060138
:1005200080910501892B90910301892B9091010104
:10053000892B90910001892B809585B98091EF01DD
:10054000813039F49091060180910201892B8095C8
:1005500085B98091EF01811113C0909106018091BE
:100560000501892B90910401892B90910201892B1F
:1005700090910101892B90910001892B809585B97B
:1005800080910B01882319F0815080930B01809199
:100590000B01811108C01BB886E090E09093F80130
:1005A0008093F70128C281E090E09093F801809356
:1005B000F70121C280910C01873220F48F5F809374
:1005C0000C0119C2873208F416C28091EE01813005
:1005D00039F41092EE018091EF018F5F8093EF016B
:1005E0008091EF01863099F490910501809104018A
:1005F000892B90910301892B90910201892B909175
:100600000101892B90910001892B809585B98091FA
:10061000EF01853081F49091050180910401892BCF
:1006200090910301892B90910201892B90910101F6
:10063000892B809585B98091EF01843069F4909180
:10064000060180910401892B90910301892B9091DF
:100650000201892B809585B98091EF01833081F467
:100660009091060180910501892B90910301892BBE
:1006700090910201892B90910101892B809585B978
:100680008091EF01823081F4909106018091050103
:10069000892B90910301892B90910101892B9091D5
:1006A0000001892B809585B98091EF01813039F463
:1006B0009091060180910201892B809585B98091E6
:1006C000EF01811113C09091060180910501892BE2
:1006D00090910401892B90910201892B9091010145
:1006E000892B90910001892B809585B980910B0110
:1006F000882319F0815080930B0180910B018111A7
:1007000008C01BB886E090E09093F8018093F70151
:1007100072C181E090E09093F8018093F7016BC182
:1007200080910C018B3320F48F5F80930C0163C1A7
:100730008B3308F460C18091EE01813039F410925E
:10074000EE018091EF018F5F8093EF018091EF01C7
:10075000863099F49091050180910401892B909144
:100760000301892B90910201892B90910101892B22
:1007700090910001892B809585B98091EF0185309A
:1007800081F49091050180910401892B90910301DE
:10079000892B90910201892B90910101892B8095E1
:1007A00085B98091EF01843069F4909106018091C0
:1007B0000401892B90910301892B90910201892BCF
:1007C000809585B98091EF01833081F49091060185
:1007D00080910501892B90910301892B9091020151
:1007E000892B90910101892B809585B98091EF012A
:1007F000823081F49091060180910501892B9091BE
:100800000301892B90910101892B90910001892B83
:10081000809585B98091EF01813039F4909106017E
:1008200080910201892B809585B98091EF0181111A
:1008300013C09091060180910501892B90910401CC
:10084000892B90910201892B90910101892B909124
:100850000001892B809585B980910B01882319F0BF
:10086000815080930B0180910B01811108C01BB84E
:1008700086E090E09093F8018093F701BCC081E09E
:1008800090E09093F8018093F701B5C080910C013E
:100890008F3420F48F5F80930C01ADC08F3408F447
:1008A000AAC08091EE01813039F41092EE0180915E
:1008B000EF018F5F8093EF018091EF01863099F413
:1008C0009091050180910401892B90910301892B5E
:1008D00090910201892B90910101892B9091000147
:1008E000892B809585B98091EF01853081F49091B5
:1008F000050180910401892B90910301892B90912E
:100900000201892B90910101892B809585B98091F5
:10091000EF01843069F49091060180910401892BE4
:1009200090910301892B90910201892B809585B9C3
:100930008091EF01833081F490910601809105014F
:10094000892B90910301892B90910201892B909121
:100950000101892B809585B98091EF01823081F466
:100960009091060180910501892B90910301892BBB
:1009700090910101892B90910001892B809585B977
:100980008091EF01813039F490910601809102014C
:10099000892B809585B98091EF01811113C09091C9
:1009A000060180910501892B90910401892B90917A
:1009B0000201892B90910101892B90910001892BD3
:1009C000809585B980910B01882319F0815080931F
:1009D0000B0180910B01811108C01BB886E090E0EB
:1009E0009093F8018093F70106C081E090E0909326
:1009F000F8018093F701E091F701F091F801E730F9
:100A0000F10508F00EC1EA5BFF4F0C94690982E022
:100A100080930C0186E080930B01909106018091F8
:100A20000501892B90910401892B90910301892B59
:100A300090910201892B90910101892B90910001E5
:100A4000892B85B90895809109018F5F80930C01EE
:100A50006FE171E00E94DE008091EC0181110AC01B
:100A60002FEF80E792E0215080409040E1F700C0F6
:100A7000000009C02FE788E391E0215080409040BA
:100A8000E1F700C0000080910B01863011F48FE384
:100A90008BB980910B01853011F48FE18BB9809176
:100AA0000B01843011F48FE08BB980910B018330FE
:100AB00011F487E08BB980910B01823011F483E04F
:100AC0008BB980910B01813009F48BB980910B01B6
:100AD0008111A7C01BB808956FE171E080910C01EE
:100AE0000E94DE008091EC0181110AC02FEF80E7A7
:100AF00092E0215080409040E1F700C0000008954E
:100B00002FE788E391E0215080409040E1F700C05A
:100B1000000008956FE171E080910C010E94DE00F9
:100B20008091EC0181110AC02FEF80E792E0215003
:100B300080409040E1F700C0000008952FE788E36F
:100B400091E0215080409040E1F700C000000895FE
:100B50006FE171E080910C010E94DE008091EC0158
:100B600081110AC02FEF80E792E021508040904031
:100B7000E1F700C0000008952FE788E391E02150DD
:100B800080409040E1F700C0000008956FE171E0FF
:100B900080910C010E94DE008091EC0181110AC05D
:100BA0002FEF80E792E0215080409040E1F700C0B5
:100BB000000008952FE788E391E0215080409040A5
:100BC000E1F700C00000089561E271E081E00E9459
:100BD000DE002FEF82E597E0215080409040E1F762
:100BE00000C0000086E20E949E008091EF01805DBF
:100BF0000E94D4002FEF82E597E021508040904082
:100C0000E1F700C000008091EF019091ED0189179C
:100C100010F08093ED0182E090E09093FE018093CC
:100C2000FD010895E091F501F091F601E730F1053D
:100C3000A0F5E35BFF4F0C94690981E090E090938D
:100C4000F6018093F50129C082E090E09093F601CF
:100C50008093F50122C083E090E09093F6018093A9
:100C6000F5011BC084E090E09093F6018093F501BC
:100C700014C085E090E09093F6018093F5010DC0DB
:100C800086E090E09093F6018093F50106C081E044
:100C900090E09093F6018093F501E091F501F091D9
:100CA000F601E830F10508F0EFC0EC5AFF4F0C9464
:100CB000690910920A0169EE71E083E10E94DE0089
:100CC00069EE71E087E20E94DE0069EE71E08BE37D
:100CD0000E94DE0069EE71E08FE40E94DE0008955C
:100CE00081E080930A0167E471E083E10E94DE0005
:100CF0008091EC0181110AC02FEF80E792E0215032
:100D000080409040E1F700C0000008952FE788E39D
:100D100091E0215080409040E1F700C0000008952C
:100D200082E080930A0167E471E087E20E94DE00BE
:100D30008091EC0181110AC02FEF80E792E02150F1
:100D400080409040E1F700C0000008952FE788E35D
:100D500091E0215080409040E1F700C000000895EC
:100D600083E080930A0167E471E08BE30E94DE0078
:100D70008091EC0181110AC02FEF80E792E02150B1
:100D800080409040E1F700C0000008952FE788E31D
:100D900091E0215080409040E1F700C000000895AC
:100DA00084E080930A0167E471E08FE40E94DE0032
:100DB0008091EC0181110AC02FEF80E792E0215071
:100DC00080409040E1F700C0000008952FE788E3DD
:100DD00091E0215080409040E1F700C0000008956C
:100DE00083E080930A0167E471E08BE30E94DE00F8
:100DF0008091EC0181110AC02FEF80E792E0215031
:100E000080409040E1F700C0000008952FE788E39C
:100E100091E0215080409040E1F700C0000008952B
:100E200082E080930A0167E471E087E20E94DE00BD
:100E30008091EC0181110AC02FEF80E792E02150F0
:100E400080409040E1F700C0000008952FE788E35C
:100E500091E0215080409040E1F700C000000895EB
:100E600067E471E083E10E94DE0067E471E087E2FD
:100E70000E94DE0067E471E08BE30E94DE0067E41D
:100E800071E08FE40E94DE0008958091F901909155
:100E9000FA01009719F0019741F00DC081E090E050
:100EA0009093FA018093F90106C081E090E090935D
:100EB000FA018093F9018091F9019091FA0100976C
:100EC00019F0019749F0089581E08093090169E4E0
:100ED00071E00E9401010895009919C080910901F3
:100EE000813021F485E18093090111C0853121F41D
:100EF00089E2809309010BC0893221F48DE380934C
:100F0000090105C08D3319F481E08093090101992D
:100F100019C080910901813021F48DE3809309018A
:100F200011C0853121F481E0809309010BC0893221
:100F300021F485E18093090105C08D3319F489E21C
:100F4000809309018FE19EE40197F1F700C0000052
:100F500069E471E0809109010E9401010895809186
:100F6000FD019091FE018130910559F130F0823000
:100F7000910571F1039799F197C080B190E0809548
:100F8000909587709927181619060CF08DC081E08E
:100F900090E09093FE018093FD0190910601809175
:100FA0000501892B90910401892B90910201892BD5
:100FB00090910101892B90910001892B809585B931
:100FC00073C081E090E09093FE018093FD016CC0BE
:100FD00082E090E09093FE018093FD0165C080B1B6
:100FE00090E08095909587709927019749F080B19E
:100FF00090E08095909587709927079709F054C0E5
:1010000080B190E08095909587709927079721F49B
:1010100081E08093EC0102C01092EC0182E08093A9
:101020000C0186E080930B011092EF0183E1809325
:101030000A011092EE0181E0809309018DE3809313
:101040000801809307019091060180910501892B89
:1010500090910401892B90910201892B90910101BB
:10106000892B90910001892B809585B91092F80108
:101070001092F7011092F6011092F5011092FA0108
:101080001092F9011092FE011092FD011092FC01E4
:101090001092FB016BE471E081E00E94DE0069EEDA
:1010A00071E081E00E94DE008091FD019091FE01DF
:1010B00082309105D9F08330910509F455C0892B10
:1010C00009F072C066E771E081E00E940101809141
:1010D0000801813508F068C061EA71E00E940101F1
:1010E000809108018F5F80930801089561E271E0AB
:1010F00081E00E9401012FEF82E597E021508040BE
:101100009040E1F700C0000086E20E949E008091BE
:10111000EF01805D0E94D4002FEF82E597E021501F
:1011200080409040E1F700C00000809107018135C8
:1011300050F461EA71E00E940101809107018F5F24
:1011400080930701089583E090E09093FE018093DF
:10115000FD016BE471E081E00E94DE0069EE71E068
:1011600081E00E94DE00089563EA71E081E00E9460
:101170000101809108018C3350F061EA71E00E9416
:1011800001018091080181508093080108956BED61
:1011900071E08DE30E9401018DE40E949E00809128
:1011A000ED01805D0E94D4000895089511B88FEF7D
:1011B00082B984B915B887B918B88AB91BB8109222
:1011C000F8011092F7011092F6011092F5011092B9
:1011D000FA011092F9011092FE011092FD01109295
:1011E000FC011092FB011092EC0162E370E080E0E0
:1011F00090E00E94A9010E942F010E94BF000E945E
:101200009A0080E00E949E0089E30E94D4006BE473
:1012100071E081E00E94DE008091EC01811127C025
:101220008091FD019091FE01019749F00E94AF0766
:101230008FE19EE40197F1F700C0000018C00E9402
:1012400045078FE19EE40197F1F700C000000E947E
:10125000BA018FE19EE40197F1F700C000000E94FF
:1012600012068FE19EE40197F1F700C00000809123
:10127000EC01813039F58091FD019091FE010197DB
:1012800049F00E94AF078FE097E20197F1F700C0A5
:10129000000018C00E9445078FE097E20197F1F720
:1012A00000C000000E94BA018FE097E20197F1F7B9
:1012B00000C000000E9412068FE097E20197F1F74C
:1012C00000C000008091F4018823E1F31092F40142
:1012D000A3CFEE0FFF1F0024001C0BBE0790F6915A
:0812E000E02D0994F894FFCF02
:1012E800402010080402013D3D01130602010000E0
:1012F8000000000002000000001E01000000003E87
:101308000047414D45204F5645522C2052414E2012
:101318004F555420204F4620414D4D4F21205343D7
:101328004F5245203D2000400044003233343536CA
:10133800373839303132333435363738393031325D
:10134800333435363738393020326E6420726F774F
:101358002068616C66005448495320495320412055
:1013680047414D452C20505245535320414E59205A
:10137800425554544F4E20544F20535441525421F7
:1013880000230050524553532046495245204255A8
:1013980054544F4E20544F205245545259202850EF
:1013A8005245535320414C4C203320464F52204144
:1013B8002053504545445550212900484947484540
:0C13C80053542053434F52453A2000007C
:00000001FF
